S0130000466C6173685F55736167652E73726563CF
S11300006021002015010000110100001101000011
S113001000000000000000000000000000000000DC
S113002000000000000000000000000011010000BA
S11300300000000000000000110100001101000098
S113004011010000110100001101000085080000E9
S113005011010000B90700001101000011010000A6
S11300601101000011010000110100001101000044
S11300701101000011010000110100001101000034
S11300801101000011010000110100001101000024
S11300901101000011010000110100001101000014
S11300A01101000010B5064C2378002B07D1054B35
S11300B0002B02D0044800E000BF0123237010BDD0
S11300C000000020000000004C0A0000084B10B59E
S11300D0002B03D00749084800E000BF0748036825
S11300E0002B00D110BD064B002BFBD09847F9E73D
S11300F000000000040000204C0A00004C0A00002C
S11301000000000010B5014B984710BDF901000034
S1130110FEE7000010B5124A124B9A4209D0114B67
S11301200F4A03E011681960043304320E498B420C
S1130130F8D30E4B02E000221A6004330C4A9342B7
S1130140F9D30C4AFF210C4B8B4393600B4A516843
S113015080230B4353600A4B98470A4B9847FEE7AA
S11301604C0A0000000000200000002000000020D5
S11301705C01002000ED00E00000000000400041B0
S11301805D0900004909000010B5084A936920215F
S11301900B439361064A074B5A80074B984702006A
S11301A006490748074B984710BDC0460004004065
S11301B002400000000C00408108000000140040D0
S11301C04001002075040000024AD36904210B4356
S11301D0D36170470004004010B5034B98470349AE
S11301E00348044B984710BDC9010000004000417A
S11301F0240100202D02000010B5034B9847034B47
S11302009847034B984710BD21050000D901000011
S11302108901000010B54369002B00D0984710BD38
S113022010B58369002B00D0984710BD70B5040049
S11302300D00002813D000290FD0012038220949CD
S1130240094B984729002000084B9847002803D100
S1130250074B2360074B636070BD0020EEE700206E
S1130260ECE7C046A4090000B90400001106000030
S11302701502000021020000F0B5C64600B50400D6
S11302800E0015001F00002820D0002A20D0002BCB
S113029020D1002056221349134B98472000134BBA
S11302A0984780462000124B984743465843B04233
S11302B012D3BB19984212D33B002A00310020000C
S11302C00C4CA047002004BC9046F0BD0020E1E7A0
S11302D00020DFE70120DDE70E204042F3E70E2097
S11302E04042F0E7A4090000B904000071060000D0
S11302F0750600007B060000F0B5C64600B5040094
S11303000D0016001F00002826D0002A26D0002B3E
S113031026D100206A221849184B98472000184B10
S1130320984780462000174B984743465843A842B5
S113033018D37B19984218D329002000124B9847F0
S1130340002815D13B003200290020000F4CA047A3
S1130350002004BC9046F0BD0020DBE70020D9E774
S11303600120D7E70E204042F3E70E204042F0E799
S113037011204042EDE7C046A4090000B904000082
S11303807106000075060000A1070000C906000000
S113039010B50400431E9841C0B2F7220349044B30
S11303A098472000034B984710BDC046A40900009D
S11303B0B904000071060000F8B50668002E02D0EA
S11303C0330000250CE0104B984718E09F68BC46AA
S11303D06444A41A01348F68BC420BD21D001B680C
S11303E0002B07D05C689442F0D8A41A9F68BC46DE
S11303F06444F0E7B34203D02800044B9847F8BDA7
S1130400014B9847FBE7C046D904000005050000EE
S1130410F8B50500446903695E1C0661037EDB07C9
S113042002D4037E9B070AD52B7E02221343DBB240
S11304302B76F8BD6F69E368200098473C00002CD8
S1130440F7D06368F31AA2689342F2D32F001437EB
S11304503800064B9847237C012BEBD166603200B1
S113046021003800024B9847E4E7C0460D05000020
S1130470B903000070B504000D00002812D0002953
S11304800ED001203B220849084B98472900200040
S1130490074B984700232361064B2360002070BD5F
S11304A00020EFE70020EDE7BC090000B9040000DC
S11304B02508000011040000002800D100BE704788
S11304C00368002B03D08B4203D01B68F9E700209C
S11304D070470120FCE7000070B504000D00064BD6
S11304E0984701235840C0B239220449044B984725
S11304F023682B60256070BDC1040000D40900008E
S1130500B904000003680B60016070470368002BA6
S113051003D01A680260180070470020FCE700004E
S113052010B5064B5A685A60054B9847054B9847D7
S1130530054B9847FF20054B984710BD00400041EC
S1130540E907000099080000E508000051050000D3
S1130550C3070AD5054B802252009A6083225202B7
S11305605A60024B5B78DB09FBD17047000C0040FA
S1130570037DDB07FCD52023FF3303834908C161D6
S1130580024B1A4392B202807047C04600A5FFFF97
S1130590F8B504000F0016001D0001200840434276
S11305A05841C0B2C52252001549164B98477908E4
S11305B0237DDB07FCD5144B2380237DDB07FCD58F
S11305C02023FF3323830A00002304E057003880EC
S11305D002339BB20132AB4208D2F75CB8B23E2B75
S11305E0F4D8F018407800023843EFE7237DDB07A6
S11305F0FCD5E161054B069A13439BB22380F8BDF9
S1130600F4090000B904000044A5FFFF00A5FFFFA2
S113061070B505000C0000281CD0104B99421BD06B
S1130620002046220E490F4B98472C6162689E2396
S1130630134063600C4B1D600C4B202280215A50E8
S1130640BFF34F8FBFF36F8F0131FF315A501A60E0
S1130650002070BD0020E4E70120E2E700400041F3
S1130660F4090000B90400001C00002000E100E0CF
S11306704020704780204001704770B54C080569E0
S11306802E7DF607FBD52020FF302883C80707D529
S11306900134012081430988090A1170012103E012
S11306A0002101E002312C0099420BD2651C640048
S11306B0208880B250545C1EA142F3D24C1C000A24
S11306C01055EFE770BD0000F0B5DE4657464E46C4
S11306D04546E0B5C5B0814616001D000C0048E053
S11306E05346990104AB5A18414440234846294FC4
S11306F0B84701239C46E2445346032BF0D94346B2
S1130700E31A99093F22134002E001340136013D06
S1130710039A94420DD8002D0BD030788A0104AF8F
S1130720BC466244D05401333F221340EDD1013121
S1130730EBE7022241464B461869174B98470023C2
S11307409A460EE05346990104AB5A1841440423D7
S113075000933C3348460069104FB84701239C4638
S1130760E2445346032BEDD92B19013B039A9A42D9
S113077009D2FF2322009A4390461700FF370397BC
S113078000239A46B8E745B03CBC90469946A24639
S1130790AB46F0BD7B06000071050000910500002A
S11307A0890B02690904090C01238B40108C184041
S11307B043425841C0B2704710B50A4B18680369E8
S11307C01A7DD20704D50368002B00D0984710BDCA
S11307D01A7D9207FBD502221A754368002BF6D0C6
S11307E09847F4E71C000020064B1A7AD2B21A721A
S11307F05A7AD2B25A729A7AD2B29A72DA7AD2B255
S1130800DA7270470004004010B50400C3681B7A14
S1130810DB0706D50368002B00D09847E368012264
S11308201A7210BD70B504000D00431E9841C0B289
S113083030221049104B9847E56001232B80AB7A96
S1130840DB09FCD1E268937ADB09FCD180331380A5
S1130850937ADB09FCD1E26893698023DB0093611E
S1130860937ADB09FCD10133E268D371034B1C603A
S1130870002070BD140A0000B9040000200000200C
S11308800020704710B5024B1868024B984710BD02
S113089020000020090800000F4B196A090C1A6A8D
S11308A0920F920709040D4801400A430C490A4378
S11308B01A629A6902210A439A611A7F1D310A4019
S11308C01A77054BDB681B07FBD5034A136A8021A3
S11308D00B4313627047C046000800400000FF0F3E
S11308E002030000024A936902218B43936170471B
S11308F000080040F8B50E480E4B9847040000234A
S113090004E008210C4AD15401339BB2022BF8D9DC
S1130910C826B601064D2300074A31002800074FB8
S1130920B8472300064A31002800064CA047F8BD0A
S1130930240100209103000024000020F90200009B
S1130940A40000207902000010B5024B9847024B26
S11309509847FEE705010000F508000070B5002681
S11309600C4D0D4C641BA410A64209D1002600F0C6
S11309705DF80A4D0A4C641BA410A64205D170BD53
S1130980B300EB5898470136EEE7B300EB589847AD
S11309900136F2E7380A0000380A0000380A00007D
S11309A03C0A00002E2E2F68616C2F7372632F682F
S11309B0616C5F666C6173682E6300002E2E2F6875
S11309C0616C2F7372632F68616C5F74696D6572FB
S11309D02E6300002E2E2F68616C2F7574696C7362
S11309E02F7372632F7574696C735F6C6973742EE3
S11309F0630000002E2E2F68706C2F6E766D63746A
S1130A00726C2F68706C5F6E766D6374726C2E639B
S1130A10000000002E2E2F68706C2F7274632F68F4
S1130A20706C5F7274632E6300000000F8B5C046FA
S1130A30F8BC08BC9E467047CD000000F8B5C0461F
S10F0A40F8BC08BC9E467047A5000000EE
S9030000FC
