:100000005020002015010000110100001101000026
:1000100000000000000000000000000000000000E0
:1000200000000000000000000000000011010000BE
:10003000000000000000000011010000110100009C
:10004000110100001101000011010000D1050000A4
:100050001101000011010000110100001101000058
:100060001101000011010000110100001101000048
:100070001101000011010000110100001101000038
:100080001101000011010000110100001101000028
:100090001101000011010000110100001101000018
:1000A0001101000010B5064C2378002B07D1054B39
:1000B000002B02D0044800E000BF0123237010BDD4
:1000C000000000200000000050070000084B10B5A1
:1000D000002B03D00749084800E000BF0748036829
:1000E000002B00D110BD064B002BFBD09847F9E741
:1000F000000000000400002050070000500700002E
:100100000000000010B5014B984710BDC901000068
:10011000FEE7000010B5124A124B9A4209D0114B6B
:100120000F4A03E011681960043304320E498B4210
:10013000F8D30E4B02E000221A6004330C4A9342BB
:10014000F9D30C4AFF210C4B8B4393600B4A516847
:1001500080230B4353600A4B98470A4B9847FEE7AE
:1001600050070000000000200000002000000020D8
:100170005000002000ED00E00000000000400041C1
:10018000990600008506000010B5084A93692021F1
:100190000B439361064A074B5A80074B984702006E
:1001A00006490748074B984710BDC0460004004069
:1001B00002400000000C0040CD050000001400408B
:1001C00034000020E102000010B50B4B9847C0231B
:1001D000DB058022D2015A619A60084B084A9A6274
:1001E000C02212069A624E215A5C012082435A5460
:1001F000044B984710BDC0467904000000440041FC
:100200000040004089010000EFF31083036072B6E4
:10021000BFF35F8F7047BFF35F8F036883F310886E
:1002200070470000F8B50668002E02D033000025A4
:100230000CE0104B984718E09F68BC466444A41A31
:1002400001348F68BC420BD21D001B68002B07D005
:100250005C689442F0D8A41A9F68BC466444F0E7F6
:10026000B34203D02800044B9847F8BD014B984790
:10027000FBE7C046310400005D040000F8B505004E
:10028000446903695E1C0661037EDB0702D4037EBA
:100290009B070AD52B7E02221343DBB22B76F8BDD7
:1002A0006F69E368200098473C00002CF7D0636832
:1002B000F31AA2689342F2D32F0014373800064B8A
:1002C0009847237C012BEBD1666032002100380077
:1002D000024B9847E4E7C046650400002502000091
:1002E00070B504000D00002812D000290ED00120A6
:1002F0003B220849084B984729002000074B9847A4
:1003000000232361064B2360002070BD0020EFE72F
:100310000020EDE7E00600001104000005050000E4
:100320007D02000010B50400431E9841C0B2532264
:100330000749084B98472000074B9847002804D1ED
:100340002000064B9847002010BD11204042FBE7DB
:10035000E006000011040000B9050000610500007E
:1003600070B582B004000D00002826D0002922D0EC
:1003700001207A221F49204B9847237E01221343F4
:10038000DBB2237626001436290030001B4B984739
:10039000002814D123696B60226929003000184BB2
:1003A0009847237E012293432376237E9B0712D412
:1003B000002002B070BD0020DBE70020D9E7237EDB
:1003C0000122934323767E320A4900200A4B984744
:1003D00012204042EDE701A80A4B9847237E0222F3
:1003E000934323762000084B984701A8074B984772
:1003F0000020DEE7E0060000110400001904000000
:100400002502000009020000CB05000017020000D1
:10041000002800D100BE70470368002B03D08B4238
:1004200003D01B68F9E7002070470120FCE70000BB
:1004300070B504000D00064B984701235840C0B228
:1004400039220449044B984723682B60256070BD0E
:1004500019040000F80600001104000003680B6096
:10046000016070470368002B03D01A68026018000F
:1004700070470020FCE7000010B5064B5A685A6030
:10048000054B9847054B9847054B9847FF20054B70
:10049000984710BD00400041C9040000E505000078
:1004A00031060000A9040000C3070AD5054B8022CD
:1004B00052009A60832252025A60024B5B78DB0939
:1004C000FBD17047000C0040064B1A7AD2B21A7268
:1004D0005A7AD2B25A729A7AD2B29A72DA7AD2B27C
:1004E000DA7270470004004010B50400C3681B7A3C
:1004F000DB0706D50368002B00D09847E36801228C
:100500001A7210BD70B504000D00431E9841C0B2B0
:1005100030221049104B9847E56001232B80AB7ABD
:10052000DB09FCD1E268937ADB09FCD180331380CC
:10053000937ADB09FCD1E26893698023DB00936145
:10054000937ADB09FCD10133E268D371034B1C6061
:10055000002070BD18070000110400001C000020DE
:1005600010B5041E20D0C368002B1BD001206722C9
:100570000E490F4B984708220E4B1A60E268136928
:1005800000231361937ADB09FCD1E268937ADB09DB
:10059000FCD1138802210B439BB21380937ADB09B1
:1005A000FCD110BD0020E2E70020E0E718070000C2
:1005B0001104000000E100E0C268937ADB09FCD17D
:1005C00013885B080120184070477047002070476F
:1005D00010B5024B1868024B984710BD1C00002054
:1005E000E90400000F4B196A090C1A6A920F92076E
:1005F00009040D4801400A430C490A431A629A69EA
:1006000002210A439A611A7F1D310A401A77054B6D
:10061000DB681B07FBD5034A136A80210B43136277
:100620007047C046000800400000FF0F02030000B2
:10063000024A936902218B4393617047000800408E
:100640008022D201C023DB05DA61704710B508496A
:10065000C8239B008B60074BCB6001230B74064CB7
:100660002000064B98472000054B984710BDC04618
:10067000200000204106000034000020610300003B
:100680002503000010B5024B9847024B9847FEE740
:10069000050100004D06000070B500260C4D0D4C04
:1006A000641BA410A64209D1002600F041F80A4DAF
:1006B0000A4C641BA410A64205D170BDB300EB58D0
:1006C00098470136EEE7B300EB5898470136F2E75A
:1006D0003C0700003C0700003C070000400700000A
:1006E0002E2E2F68616C2F7372632F68616C5F749C
:1006F000696D65722E6300002E2E2F68616C2F7558
:1007000074696C732F7372632F7574696C735F6C8B
:100710006973742E630000002E2E2F68706C2F7288
:1007200074632F68706C5F7274632E630000000046
:10073000F8B5C046F8BC08BC9E467047CD00000026
:10074000F8B5C046F8BC08BC9E467047A50000003E
:00000001FF
